{
  "contractName": "CarSales",
  "abi": [
    {
      "anonymous": false,
      "inputs": [
        {
          "indexed": true,
          "internalType": "uint256",
          "name": "id",
          "type": "uint256"
        },
        {
          "indexed": true,
          "internalType": "address",
          "name": "owner",
          "type": "address"
        },
        {
          "indexed": false,
          "internalType": "string",
          "name": "model",
          "type": "string"
        },
        {
          "indexed": false,
          "internalType": "uint256",
          "name": "price",
          "type": "uint256"
        }
      ],
      "name": "CarAdded",
      "type": "event"
    },
    {
      "anonymous": false,
      "inputs": [
        {
          "indexed": true,
          "internalType": "uint256",
          "name": "id",
          "type": "uint256"
        },
        {
          "indexed": true,
          "internalType": "address",
          "name": "seller",
          "type": "address"
        },
        {
          "indexed": true,
          "internalType": "address",
          "name": "buyer",
          "type": "address"
        },
        {
          "indexed": false,
          "internalType": "uint256",
          "name": "price",
          "type": "uint256"
        }
      ],
      "name": "CarSold",
      "type": "event"
    },
    {
      "inputs": [],
      "name": "carIndex",
      "outputs": [
        {
          "internalType": "uint256",
          "name": "",
          "type": "uint256"
        }
      ],
      "stateMutability": "view",
      "type": "function",
      "constant": true
    },
    {
      "inputs": [
        {
          "internalType": "uint256",
          "name": "",
          "type": "uint256"
        }
      ],
      "name": "cars",
      "outputs": [
        {
          "internalType": "address",
          "name": "owner",
          "type": "address"
        },
        {
          "internalType": "string",
          "name": "model",
          "type": "string"
        },
        {
          "internalType": "uint256",
          "name": "price",
          "type": "uint256"
        },
        {
          "internalType": "uint256",
          "name": "index",
          "type": "uint256"
        }
      ],
      "stateMutability": "view",
      "type": "function",
      "constant": true
    },
    {
      "inputs": [
        {
          "internalType": "string",
          "name": "_model",
          "type": "string"
        },
        {
          "internalType": "uint256",
          "name": "_price",
          "type": "uint256"
        }
      ],
      "name": "addCar",
      "outputs": [],
      "stateMutability": "nonpayable",
      "type": "function"
    },
    {
      "inputs": [
        {
          "internalType": "uint256",
          "name": "_id",
          "type": "uint256"
        },
        {
          "internalType": "address",
          "name": "_buyer",
          "type": "address"
        }
      ],
      "name": "sellCar",
      "outputs": [],
      "stateMutability": "payable",
      "type": "function",
      "payable": true
    }
  ],
  "bytecode": "0x608060405234801561001057600080fd5b50610db0806100206000396000f3fe60806040526004361061003f5760003560e01c8063369aafd314610044578063965ac0c514610060578063a897564514610089578063f7746e36146100b4575b600080fd5b61005e600480360381019061005991906105e4565b6100f4565b005b34801561006c57600080fd5b506100876004803603810190610082919061076a565b61032e565b005b34801561009557600080fd5b5061009e61045e565b6040516100ab91906107d5565b60405180910390f35b3480156100c057600080fd5b506100db60048036038101906100d691906107f0565b610464565b6040516100eb94939291906108ab565b60405180910390f35b3373ffffffffffffffffffffffffffffffffffffffff1660008084815260200190815260200160002060000160009054906101000a900473ffffffffffffffffffffffffffffffffffffffff1673ffffffffffffffffffffffffffffffffffffffff1614610197576040517f08c379a000000000000000000000000000000000000000000000000000000000815260040161018e90610943565b60405180910390fd5b6000808381526020019081526020016000206002015434146101ee576040517f08c379a00000000000000000000000000000000000000000000000000000000081526004016101e5906109d5565b60405180910390fd5b600080600084815260200190815260200160002060000160009054906101000a900473ffffffffffffffffffffffffffffffffffffffff1690508073ffffffffffffffffffffffffffffffffffffffff166108fc349081150290604051600060405180830381858888f1935050505015801561026e573d6000803e3d6000fd5b508160008085815260200190815260200160002060000160006101000a81548173ffffffffffffffffffffffffffffffffffffffff021916908373ffffffffffffffffffffffffffffffffffffffff1602179055508173ffffffffffffffffffffffffffffffffffffffff163373ffffffffffffffffffffffffffffffffffffffff16847f8205a71867f7292bcef9e53d4774758d6173b03f63017dec9a03a6664b429dc53460405161032191906107d5565b60405180910390a4505050565b60405180608001604052803373ffffffffffffffffffffffffffffffffffffffff168152602001838152602001828152602001600154815250600080600154815260200190815260200160002060008201518160000160006101000a81548173ffffffffffffffffffffffffffffffffffffffff021916908373ffffffffffffffffffffffffffffffffffffffff16021790555060208201518160010190816103d79190610c01565b5060408201518160020155606082015181600301559050503373ffffffffffffffffffffffffffffffffffffffff166001547f99bef97e0d5f8fb1e048e4c45fec00ae53dbaf9fd102636c47e1a88f7fe26d0f848460405161043a929190610cd3565b60405180910390a36001600081548092919061045590610d32565b91905055505050565b60015481565b60006020528060005260406000206000915090508060000160009054906101000a900473ffffffffffffffffffffffffffffffffffffffff16908060010180546104ad90610a24565b80601f01602080910402602001604051908101604052809291908181526020018280546104d990610a24565b80156105265780601f106104fb57610100808354040283529160200191610526565b820191906000526020600020905b81548152906001019060200180831161050957829003601f168201915b5050505050908060020154908060030154905084565b6000604051905090565b600080fd5b600080fd5b6000819050919050565b61056381610550565b811461056e57600080fd5b50565b6000813590506105808161055a565b92915050565b600073ffffffffffffffffffffffffffffffffffffffff82169050919050565b60006105b182610586565b9050919050565b6105c1816105a6565b81146105cc57600080fd5b50565b6000813590506105de816105b8565b92915050565b600080604083850312156105fb576105fa610546565b5b600061060985828601610571565b925050602061061a858286016105cf565b9150509250929050565b600080fd5b600080fd5b6000601f19601f8301169050919050565b7f4e487b7100000000000000000000000000000000000000000000000000000000600052604160045260246000fd5b6106778261062e565b810181811067ffffffffffffffff821117156106965761069561063f565b5b80604052505050565b60006106a961053c565b90506106b5828261066e565b919050565b600067ffffffffffffffff8211156106d5576106d461063f565b5b6106de8261062e565b9050602081019050919050565b82818337600083830152505050565b600061070d610708846106ba565b61069f565b90508281526020810184848401111561072957610728610629565b5b6107348482856106eb565b509392505050565b600082601f83011261075157610750610624565b5b81356107618482602086016106fa565b91505092915050565b6000806040838503121561078157610780610546565b5b600083013567ffffffffffffffff81111561079f5761079e61054b565b5b6107ab8582860161073c565b92505060206107bc85828601610571565b9150509250929050565b6107cf81610550565b82525050565b60006020820190506107ea60008301846107c6565b92915050565b60006020828403121561080657610805610546565b5b600061081484828501610571565b91505092915050565b610826816105a6565b82525050565b600081519050919050565b600082825260208201905092915050565b60005b8381101561086657808201518184015260208101905061084b565b60008484015250505050565b600061087d8261082c565b6108878185610837565b9350610897818560208601610848565b6108a08161062e565b840191505092915050565b60006080820190506108c0600083018761081d565b81810360208301526108d28186610872565b90506108e160408301856107c6565b6108ee60608301846107c6565b95945050505050565b7f4f6e6c7920636172206f776e65722063616e2073656c6c20746865206361722e600082015250565b600061092d602083610837565b9150610938826108f7565b602082019050919050565b6000602082019050818103600083015261095c81610920565b9050919050565b7f53656e742076616c756520646f6573206e6f74206d617463682063617220707260008201527f6963652e00000000000000000000000000000000000000000000000000000000602082015250565b60006109bf602483610837565b91506109ca82610963565b604082019050919050565b600060208201905081810360008301526109ee816109b2565b9050919050565b7f4e487b7100000000000000000000000000000000000000000000000000000000600052602260045260246000fd5b60006002820490506001821680610a3c57607f821691505b602082108103610a4f57610a4e6109f5565b5b50919050565b60008190508160005260206000209050919050565b60006020601f8301049050919050565b600082821b905092915050565b600060088302610ab77fffffffffffffffffffffffffffffffffffffffffffffffffffffffffffffffff82610a7a565b610ac18683610a7a565b95508019841693508086168417925050509392505050565b6000819050919050565b6000610afe610af9610af484610550565b610ad9565b610550565b9050919050565b6000819050919050565b610b1883610ae3565b610b2c610b2482610b05565b848454610a87565b825550505050565b600090565b610b41610b34565b610b4c818484610b0f565b505050565b5b81811015610b7057610b65600082610b39565b600181019050610b52565b5050565b601f821115610bb557610b8681610a55565b610b8f84610a6a565b81016020851015610b9e578190505b610bb2610baa85610a6a565b830182610b51565b50505b505050565b600082821c905092915050565b6000610bd860001984600802610bba565b1980831691505092915050565b6000610bf18383610bc7565b9150826002028217905092915050565b610c0a8261082c565b67ffffffffffffffff811115610c2357610c2261063f565b5b610c2d8254610a24565b610c38828285610b74565b600060209050601f831160018114610c6b5760008415610c59578287015190505b610c638582610be5565b865550610ccb565b601f198416610c7986610a55565b60005b82811015610ca157848901518255600182019150602085019450602081019050610c7c565b86831015610cbe5784890151610cba601f891682610bc7565b8355505b6001600288020188555050505b505050505050565b60006040820190508181036000830152610ced8185610872565b9050610cfc60208301846107c6565b9392505050565b7f4e487b7100000000000000000000000000000000000000000000000000000000600052601160045260246000fd5b6000610d3d82610550565b91507fffffffffffffffffffffffffffffffffffffffffffffffffffffffffffffffff8203610d6f57610d6e610d03565b5b60018201905091905056fea26469706673582212205c284c904330bb80aa3b8068e8a3aca2be9afa574c6e9046fa9ada69061d083364736f6c63430008130033",
  "immutableReferences": {},
  "source": "// SPDX-License-Identifier: MIT\npragma solidity ^0.8.0;\n\ncontract CarSales {\n    struct Car {\n        address owner;\n        string model;\n        uint256 price;\n        uint256 index;\n    }\n\n    mapping(uint256 => Car) public cars;\n    uint256 public carIndex;\n\n    event CarAdded(uint256 indexed id, address indexed owner,string model, uint256 price);\n    event CarSold(uint256 indexed id, address indexed seller, address indexed buyer, uint256 price);\n\n    function addCar( string memory _model, uint256 _price) public {\n        cars[carIndex] = Car(msg.sender, _model, _price, carIndex);\n        emit CarAdded(carIndex, msg.sender, _model, _price);\n        carIndex++;\n    }\n\n    function sellCar(uint256 _id, address _buyer) public payable {\n        require(cars[_id].owner == msg.sender, \"Only car owner can sell the car.\");\n        require(msg.value == cars[_id].price, \"Sent value does not match car price.\");\n\n        address payable carOwner = payable(cars[_id].owner);\n        carOwner.transfer(msg.value);\n        cars[_id].owner = _buyer;\n        // cars[_id].sold = true;\n\n        emit CarSold(_id, msg.sender, _buyer, msg.value);\n    }\n\n}",
  "sourcePath": "/home/adi/Desktop/mini-project/smart-contracts/contracts/CarSales.sol",
  "compiler": {
    "name": "solc",
    "version": "0.8.19+commit.7dd6d404.Emscripten.clang"
  },
  "schemaVersion": "3.4.13",
  "updatedAt": "2023-05-03T07:21:58.474Z",
  "networkType": "ethereum",
  "devdoc": {
    "kind": "dev",
    "methods": {},
    "version": 1
  },
  "userdoc": {
    "kind": "user",
    "methods": {},
    "version": 1
  }
}